:020000040800F2
:10000000D019002021020008412400085F210008C7
:100010003D24000833040008F12800080000000017
:10002000000000000000000000000000890100083E
:100030004904000800000000CD010008B1270008B5
:100040003B0200083B0200083B0200083B0200089C
:100050003B0200083B0200083B0200083B0200088C
:100060003B0200083B0200083B0200083B0200087C
:100070003B0200083B0200083B0200083B0200086C
:100080003B0200083B0200083B020008D1280008A0
:10009000E1280008390400083B0200083B02000880
:1000A0003B0200083B0200083B0200083B0200083C
:1000B0003B0200083B0200084D2800083B020008F4
:1000C0003B0200083B0200083B0200083B0200081C
:1000D0003B0200083B0200083B0200083B0200080C
:1000E0003B0200083B0200083B02000800F002F857
:1000F00000F03AF80AA090E8000C82448344AAF188
:100100000107DA4501D100F02FF8AFF2090EBAE885
:100110000F0013F0010F18BFFB1A43F0010318473B
:100120006067000080670000103A24BF78C878C17B
:10013000FAD8520724BF30C830C144BF04680C60ED
:10014000704700000023002400250026103A28BF35
:1001500078C1FBD8520728BF30C148BF0B60704739
:100160001FB51FBD10B510BD00F02EF91146FFF7E9
:10017000F7FF03F0FBFC00F04CF903B4FFF7F2FFCC
:1001800003BC00F04FF90000224B19680868B0E882
:10019000F00F80F30988BFF36F8F4FF0000080F3FA
:1001A00011884EF00D0E70470000000006480068F0
:1001B000006880F3088862B661B6BFF34F8FBFF363
:1001C0006F8F00DF00BF00BF08ED00E0EFF3098094
:1001D000BFF36F8F0F4B1A6820E9F00F106008B55E
:1001E0004FF0500080F31188BFF34F8FBFF36F8F34
:1001F00004F094FD4FF0000080F31188BDE8084042
:1002000019680868B0E8F00F80F30988BFF36F8FB2
:10021000704700BF18000020EFF305807047000012
:100220000948804709480047FEE7FEE7FEE7FEE78A
:10023000FEE7FEE7FEE7FEE7FEE7FEE704480549C6
:10024000054A064B704700004B280008ED000008E7
:10025000D0130020D0190020D0150020D015002088
:10026000032A40F2308010F0030C00F0158011F8E2
:10027000013BBCF1020F624498BF11F801CB00F8BA
:10028000013B38BF11F8013BA2F1040298BF00F80E
:1002900001CB38BF00F8013B11F0030300F02580CB
:1002A000083AC0F0088051F8043B083A51F804CBF2
:1002B000A0E80810F5E7121D5CBF51F8043B40F8B8
:1002C000043BAFF30080D20724BF11F8013B11F8C3
:1002D00001CB48BF11F8012B24BF00F8013B00F807
:1002E00001CB48BF00F8012B704710B5203AC0F091
:1002F0000B80B1E81850203AA0E81850B1E8185027
:10030000A0E81850BFF4F5AF5FEA027C24BFB1E863
:100310001850A0E8185044BF18C918C0BDE81040D4
:100320005FEA827C24BF51F8043B40F8043B08BFDD
:100330007047D20728BF31F8023B48BF11F8012BA4
:1003400028BF20F8023B48BF00F8012B70474FF050
:10035000000200B5134694469646203922BFA0E815
:100360000C50A0E80C50B1F12001BFF4F7AF090721
:1003700028BFA0E80C5048BF0CC05DF804EB890012
:1003800028BF40F8042B08BF704748BF20F8022B55
:1003900011F0804F18BF00F8012B7047704770476D
:1003A000704710B500F008F8006810BD10B504469D
:1003B00000F002F8046010BD004870476C13002084
:1003C000004870476C1300207546FFF7F9FFAE46F2
:1003D00005006946534620F00700854618B020B551
:1003E000FFF72CFFBDE820404FF000064FF000075C
:1003F0004FF000084FF0000B21F00701AC46ACE8CD
:10040000C009ACE8C009ACE8C009ACE8C0098D4639
:10041000704710B50446AFF300802046BDE8104099
:10042000FFF7ABBE01491820ABBEFEE72600020075
:10043000704700BFFEE7000010B5024800F012FA56
:1004400010BD000034030020704772B600BFFEE705
:1004500010B5024692F82030012B01D0022B06D1B4
:1004600010684069084314686061002010BD506A3C
:1004700040F4802050620120F8E7F0B504460D46B4
:100480001E4694F8207020688368A86800B900E0D0
:1004900000BF012F01D0022F7DD103F0806030B961
:1004A00003F0006018B903F0805000287ED0C3F339
:1004B0000161012088403060A86860B9B5F800C0CB
:1004C000E86840EA4C5C206800F5C07000EB011061
:1004D000C0F800C00FE0D5E901C040EACC00D5F873
:1004E0000CC040EA0C00D4F800C00CF5C07C0CEB4A
:1004F000011CCCF80000D5F810C0206800F5C070D1
:1005000000EB0110C0F804C0287D01280ED120683E
:1005100000F5C07000EB0110406840F4807C20685A
:1005200000F5C07000EB0110C0F804C0D0790006DF
:1005300092F806C040EA0C4092F805C040EA0C2050
:1005400092F804C040EA0C00D4F800C00CF5C07C5E
:100550000CEB011CCCF80C00D078000692F802C01D
:1005600040EA0C4092F801C040EA0C2092F800C02A
:1005700040EA0C00D4F800C00CF5C07C0CEB011C68
:10058000CCF80800206800F5C07000EB011000688E
:1005900040F0010C01E00FE008E0206800F5C070B9
:1005A00000EB0110C0F800C00020F0BD606A40F40C
:1005B000001060620120F8E7606A40F48020606209
:1005C0000120F2E7F0B504460A46216894F820506D
:1005D000012D01D0022D74D1D1F8000240F00100AC
:1005E000C1F80002107D00F01F06012000FA06F39A
:1005F000D1F81C029843C1F81C02D069C8B9D1F8DF
:100600000C029843C1F80C02908880B2968940EAA7
:10061000064601F51070576940F83760108880B2BF
:10062000168940EA064601F51070576900EBC700CD
:100630004660D069012819D1D1F80C021843C1F8DD
:100640000C02908880B2168840EA064601F51070C8
:10065000576940F83760908980B2168940EA0646AB
:1006600001F51070576900EBC7004660906928B922
:10067000D1F804029843C1F8040204E0D1F804025E
:100680001843C1F80402106928B9D1F8140298433C
:10069000C1F8140204E0D1F814021843C1F814029E
:1006A000106A012804D1D1F81C021843C1F81C02B9
:1006B000D1F8000220F00100C1F800020020F0BDD6
:1006C000FFE7606A40F4802060620120F7E770472E
:1006D00070B5044694F82050012D01D0022D7DD133
:1006E00051B92068C06800F0030080B9606A40F426
:1006F00000106062012070BD2068006900F00300F6
:1007000028B9606A40F4001060620120F3E72068B5
:1007100000F5D87000EB0110006800F00400906054
:10072000906840B9206800F5D87000EB01100068AF
:10073000400D106007E0206800F5D87000EB011054
:100740000068C0085060206800F5D87000EB011008
:10075000006800F00200D060206800F5D87000EB5F
:100760000110406800F00F00082802D30820106133
:1007700008E0206800F5D87000EB0110406800F038
:100780000F001061206800F5D87000EB0110406880
:1007900000F47F40000A9061206800F5D87000EBFB
:1007A00001104068000C5061206800F5D87000EB23
:1007B000011080681870206800F5D87000EB0110F7
:1007C000806800F47F40000A5870206800F5D870F7
:1007D00000EB0110806800F47F0000E03CE0000CBA
:1007E0009870206800F5D87000EB01108068000E4A
:1007F000D870206800F5D87000EB0110C06818713F
:10080000206800F5D87000EB0110C06800F47F404C
:10081000000A5871206800F5D87000EB0110C0681C
:1008200000F47F00000C9871206800F5D87000EB90
:100830000110C068000ED87131B92068C06840F05E
:1008400020002668F06005E02068006940F0200084
:100850002668306100204EE7606A40F480206062C4
:10086000012048E72DE9F05F04460025206846692D
:100870002068D0F80490206887682068D0F80CA021
:100880002068D0F810B02068D0F8188006F0010079
:10089000002855D007F00100C0B101202168886010
:1008A00007F0020018B1204600F033FB0EE007F01D
:1008B000040010B145F4006508E007F0080010B12D
:1008C00045F4805502E0204600F022FB07F48070DA
:1008D000C8B14FF480702168886007F4007018B1C7
:1008E000204600F018FB0EE007F4806010B145F4DC
:1008F000005508E007F4006010B145F4804502E0BF
:10090000204600F007FB07F48030C8B14FF4803078
:100910002168886007F4003018B1204600F0FDFA25
:100920000EE007F4802010B145F4004508E007F41C
:10093000002010B145F4803502E0204600F0ECFACA
:1009400006F0080038B10AF0100020B145F4007537
:1009500010202168C86006F0040040B10AF00800C9
:1009600028B108202168C860204600F0B9F906F0D7
:10097000020038B12068C06800F0030010B12046C2
:1009800000F0B0F906F0400038B10BF0100020B1D3
:1009900045F4806510202168086106F0200040B110
:1009A0000BF0080028B1082021680861204600F0FB
:1009B0007DFA06F0100038B12068006900F00300ED
:1009C00010B1204600F073FA06F4003040B109F08F
:1009D000100028B1102021684860204600F068FA15
:1009E00006F4803040B109F0080028B108202168E1
:1009F0004860204600F092FA06F4004088B309F0FF
:100A0000040078B306F4807020B108F0010008B14A
:100A100045F0010506F4007020B108F0020008B1AD
:100A200045F0020506F4806020B108F0040008B12A
:100A300045F0040506F40060A0B108F0700088B12C
:100A400008F07000402817D006DC10280BD02028B2
:100A50000CD0302819D10CE0502810D0602814D1C7
:100A600010E01DE019E045F008050FE045F0100525
:100A70000CE045F0200509E045F0400506E045F0B2
:100A8000800503E045F4807500E000BF00BF2068EA
:100A9000806920F070002168886104202168486026
:100AA0002DB1606A284360622046FFF710FEBDE862
:100AB000F09F70B504460CB9012070BD94F8200079
:100AC00010B9204600F0B0F82068006840F001003E
:100AD0002168086000F0BAFB05460DE000F0B6FBA7
:100AE000401B0A2808D9606A40F400306062052083
:100AF00084F820000120E0E72068406800F0010051
:100B00000028EBD02068006820F00200216808600F
:100B100000F09CFB05460DE000F098FB401B0A2806
:100B200008D9606A40F400306062052084F8200033
:100B30000120C2E72068406800F002000028EBD1E5
:100B4000207E012806D12068006840F080002168DE
:100B5000086005E02068006820F0800021680860D7
:100B6000607E012806D12068006840F040002168BE
:100B7000086005E02068006820F0400021680860F7
:100B8000A07E012806D12068006840F0200021687E
:100B9000086005E02068006820F0200021680860F7
:100BA000E07E012806D12068006820F0100021684E
:100BB000086005E02068006840F0100021680860C7
:100BC000207F012806D12068006840F008002168D5
:100BD000086005E02068006820F0080021680860CF
:100BE000607F012806D12068006840F00400216879
:100BF000086005E02068006820F0040021680860B3
:100C0000D4E9020108432169084361690843616826
:100C1000491E08432168C86100206062012084F8F1
:100C20002000002049E7000010B586B004460020EF
:100C3000029003900490059026492068884246D18E
:100C400000BF2548C06940F000702349C8610846CC
:100C5000C06900F00070019000BF00BF00BF0846EF
:100C6000806940F0040088610846806900F0040053
:100C7000019000BF00BFC8140290002003900490B0
:100C800002A9164800F04CF94FF48050029002205F
:100C900003900320059002A9104800F041F90022BA
:100CA0000521132000F092FB132000F07FFB0022AF
:100CB0000521142000F08AFB142000F077FB0022AD
:100CC0000521152000F082FB152000F06FFB06B017
:100CD00010BD000000640040001002400008014008
:100CE0007047000010B586B004466B4B6B4A00217C
:100CF0002046FFF7EDFC002005E06749095C684AE3
:100D000022F81010401C0828F7DB64480068A0F2A5
:100D10000320002859D0012802D00D2854D1A9E081
:100D20006048B0F86811B0F97A01081AB0F5805F30
:100D300006DD5C48D0F87411491EC0F874110EE04D
:100D40005848B0F86811B0F97A01081A10F5805FB8
:100D500005DA5448D0F87411491CC0F87411514890
:100D6000B0F8680101B24F48A0F87A114C484088A9
:100D70004B49097840EA012081B24A48A0F868113D
:100D80004748C0884649097940EA012001B24548F0
:100D9000A0F86A11424840894149097A40EA012095
:100DA00001B24048A0F86C113D48017B3D4880F8F5
:100DB0007811D0F87401C0EB40313A48B0F86801BE
:100DC00001443848C0F8701162E03648B0F8AC1001
:100DD000B0F9BE00081AB0F5805F06DD3148D0F8E2
:100DE000B810491EC0F8B8100EE02E48B0F8AC108C
:100DF000B0F9BE00081A10F5805F05DA2948D0F86E
:100E0000B810491CC0F8B8102648B0F8AC0001B2C0
:100E10002448A0F8BE10224840882149097840EAB9
:100E2000012081B21F48A0F8AC101D48C0881C49A1
:100E3000097940EA012001B21A48A0F8AE1018481A
:100E400040891749097A40EA012001B21548A0F803
:100E5000B0101348017B134880F8BC10D0F8B800DC
:100E6000C0EB40310F48B0F8AC0001440D48C0F869
:100E7000B4100DE00A48C06810220949009002A889
:100E8000FFF7EEF9084802A90EC902F049FE00BFBB
:100E900000BF06B010BD00007800002050130020F5
:100EA00030130020EC1000202413002070477047FE
:100EB000704770B5044694F82000012822D1022022
:100EC00084F820002068006820F001002168086094
:100ED00000F0BCF905460DE000F0B8F9401B0A2807
:100EE00008D9606A40F400306062052084F8200070
:100EF000012070BD2068406800F001000028EBD19F
:100F00006062F6E7606A40F4002060620120F0E76A
:100F100070477047704770477047704770470000D0
:100F20002DE9F8470346002294466EE14FF0010890
:100F300008FA02F4D1F8008008EA0400A0427DD14A
:100F4000DFF8DCA2D1F80480A8EB0A09D0453AD03A
:100F500014DCB8F1030F50D009DCB8F1000F31D028
:100F6000B8F1010F1CD0B8F1020F49D120E0B8F15F
:100F7000110F18D0B8F1120F42D11EE0B9F5881F39
:100F800025D006DCB9F5803F20D0B9F5801F37D1D8
:100F90001AE0B9F5001F18D0B9F5041F30D117E0D9
:100FA000D1F80CC02DE0D1F80C8008F1040C28E039
:100FB000D1F80C8008F1080C23E0D1F80C8008F17E
:100FC0000C0C1EE000BF00BF00BF00BF00BF00BF91
:100FD000D1F80880B8F1000F02D14FF0040C0BE0FB
:100FE000D1F80880B8F1010F03D14FF0080C1C6153
:100FF00002E04FF0080C5C6103E04FF0000C00E0F1
:1010000000BF00BFFF2801D8984601E003F10408A3
:101010004646FF2802D84FEA820803E0A2F10808FA
:101020004FEA88084746D6F800804FF00F0909FAC2
:1010300007F928EA09080CFA07F900E088E048EA0D
:101040000908C6F80080D1F8048008F08058B8F18B
:10105000805F7DD100BFDFF8CC81D8F8188048F0E0
:101060000108DFF8C091C9F81880C846D8F8188080
:1010700008F00108CDF8008000BF00BF4FEAB93882
:101080004FEA920958F829504FEA82784FEA1879C6
:101090004FF00F0808FA09F825EA0805DFF88881FB
:1010A000434502D14FF0000816E0DFF88081434548
:1010B00002D14FF001080FE0DFF87481434502D1FF
:1010C0004FF0020808E0DFF86C81434502D14FF091
:1010D000030801E04FF004084FEA82794FEA1979DA
:1010E00008FA09F848EA0505DFF84C814FEA920949
:1010F00048F82950D1F8048008F48018B8F5801F0A
:101100000AD1DFF83881D8F8008048EA0008DFF813
:101110002C91C9F8008009E0DFF82081D8F8008020
:1011200028EA0008DFF81491C9F80080D1F804809B
:1011300008F40018B8F5001F10D1DFF8008108F19D
:101140000408D8F8008048EA0008DFF8F09000E0D2
:101150005AE009F10409C9F800800DE0DFF8DC80ED
:1011600008F10408D8F8008028EA0008DFF8CC90DD
:1011700009F10409C9F80080D1F8048008F40038A6
:10118000B8F5003F0ED1DFF8B480A8F10408D8F814
:10119000008048EA0008DFF8A490A9F10409C9F822
:1011A00000800DE0DFF89480A8F10408D8F80080F2
:1011B00028EA0008DFF88490A9F10409C9F8008042
:1011C000D1F8048008F48038B8F5803F0ED1DFF8FC
:1011D0006C80A8F10808D8F8008048EA0008DFF819
:1011E0005C90A9F10809C9F800800DE0DFF84C8097
:1011F000A8F10808D8F8008028EA0008DFF83C9039
:10120000A9F10809C9F80080521CD1F8008028FA19
:1012100002F8B8F1000F7FF489AEBDE8F88700004E
:10122000000011100010024000080140000C0140B5
:101230000010014000140140080001400804014072
:101240000AB1016101E00B040361704701480068C5
:10125000704700000800002003480068034909782F
:101260000844014908607047080000201000002071
:1012700010B50848006840F01000064908600320D7
:1012800000F0E2F80F2000F007F800F05FF800200F
:1012900010BD0000002002402DE9F04188B0044656
:1012A0000027B846002600BF2348C06940F004006C
:1012B0002149C8610846C06900F00400019000BFE0
:1012C00000BF02A903A800F099F9069F1FB900F01A
:1012D000BDF9054602E000F0B9F945001748B5FB35
:1012E000F0F0A0F1010816481649086040F2E73115
:1012F0001448C160C0F804800021016181608161EF
:1013000000F0E2FD064696B90E4800F011FE0646D2
:101310006EB91E2000F04AF8102C07D20022214698
:101320001E2000F053F80848046000E00126304613
:1013300008B0BDE8F08100000010024040420F00FC
:1013400000080040B40300200C00002008B500BFD6
:101350001448806940F0010012498861084680699C
:1013600000F00100009000BF00BF00BF0846C06948
:1013700040F08050C8610846C06900F0805000907D
:1013800000BF00BF00220F21901E00F01FF800BF19
:101390000549486820F0E06040F00070486000BFF8
:1013A00008BD000000100240000001400146084650
:1013B000002809DB00F01F0301229A4043099B002B
:1013C00003F1E023C3F8002100BF70472DE9F05F6F
:1013D00080460D461646002701F0B4FA0746394606
:1013E0002A46334601F00700C0F1070ABAF1040F9C
:1013F00002D94FF0040A01E0C0F1070AD14600F11A
:10140000040ABAF1070F02D24FF0000A01E0A0F17E
:10141000030AD4464FF0010A0AFA09FAAAF1010AAE
:101420000AEA020A0AFA0CFA4FF0010B0BFA0CFB5B
:10143000ABF1010B0BEA030B4AEA0B0421464046D1
:1014400001F088FABDE8F09F00BF00F00702064BEC
:1014500019684FF6FF031940044B0B4343EA02217E
:10146000014B196000BF70470CED00E00000FA0569
:1014700070B504460D460CB9012070BD5A4800688D
:1014800000F00700A8420ED25748006820F007007D
:101490002843554908600846006800F00700A84244
:1014A00001D00120E9E7207800F0020002281DD1D8
:1014B000207800F00400042805D14C48406840F42E
:1014C000E0604A494860207800F00800082805D10B
:1014D0004648406840F4605044494860434840688A
:1014E00020F0F000A168084340494860207800F0EF
:1014F000010078B36068012806D13C48006800F418
:10150000003090B90120B8E76068022806D137485A
:10151000006800F0007040B90120AEE73348006871
:1015200000F0020008B90120A7E73048406820F029
:101530000300616808432D494860FFF787FE0646AF
:1015400009E0FFF783FE801B41F28831884202D90F
:10155000032092E707E02548406800F00C0061682E
:10156000B0EB810FEDD12048006800F00700A842E1
:101570000ED91D48006820F0070028431A4908606A
:101580000846006800F00700A84201D0012074E777
:10159000207800F00400042807D11448406820F4A3
:1015A000E060E168084311494860207800F00800D5
:1015B000082808D10D48406820F46050216940EAAD
:1015C000C1000A49486000F051F808494968C1F370
:1015D0000311074A515CC840064908600648006884
:1015E000FFF75AFE002048E70020024000100240AA
:1015F00052660008140000200C0000200F22026038
:101600000D4A526802F0030242600B4A526802F02F
:10161000F0028260084A526802F4E062C260064A40
:10162000526802F46052D2080261044A126802F061
:1016300007020A60704700000010024000200240CC
:1016400001480068704700001400002000B5FFF753
:10165000F7FF04494968C1F30221034A515CC840BD
:1016600000BD0000001002406266000870B5002155
:101670000022002400230020134D696801F00C05AE
:10168000F5B1042D02D0082D19D101E00F4819E061
:101690000F4DC1F38346AB5D01F4803555B10A4D62
:1016A0006D68C5F340450B4E725D084D5D43B5FB5B
:1016B000F2F402E0084D03FB05F4204602E000BF0F
:1016C000024800BF00BF70BD0010024000127A0047
:1016D000406600085066000800093D00F8B5044661
:1016E0000CB90120F8BD207800F00100002878D066
:1016F000F848406800F00C0004280CD0F548406819
:1017000000F00C00082811D1F248406800F4803045
:10171000B0F5803F0AD1EF48006800F4003000289F
:101720005FD0606800285CD10120DBE700BF606803
:10173000B0F5803F06D1E748006840F48030E549C5
:10174000086028E0606858B9E248006820F48030FA
:10175000E04908600846006820F4802008601AE02C
:101760006068B0F5A02F0BD1DA48006840F4802003
:10177000D84908600846006840F4803008600AE0F4
:10178000D448006820F48030D249086008460068D8
:1017900020F48020086000BF606888B1FFF756FD24
:1017A000054606E0FFF752FD401B642801D90320DF
:1017B00098E7C848006800F400300028F2D010E034
:1017C000FFF744FD054606E0FFF740FD401B642897
:1017D00001D9032086E7BF48006800F400300028E4
:1017E000F2D1207800F00200022857D1B9484068B1
:1017F00000F00C0050B1B748406800F00C00082819
:1018000018D1B448406800F4803098B9B1480068F5
:1018100000F0020020B12069012801D0012061E719
:10182000AC48006820F0F800616940EAC100A949AD
:10183000086033E02069E8B10120A7490860FFF79C
:1018400005FD054606E0FFF701FD401B022801D912
:10185000032047E79F48006800F002000028F2D00C
:101860009C48006820F0F800616940EAC10099498D
:10187000086013E0002098490860FFF7E7FC054680
:1018800006E0FFF7E3FC401B022801D9032029E70B
:101890009048006800F002000028F2D1207800F0A3
:1018A000080008282DD1A069B8B101208B49086033
:1018B000FFF7CCFC054606E0FFF7C8FC401B0228FA
:1018C00001D903200EE78348406A00F00200002897
:1018D000F2D0012000F0A6FE13E000207F4908604E
:1018E000FFF7B4FC054606E0FFF7B0FC401B0228FA
:1018F00001D90320F6E67748406A00F0020000288C
:10190000F2D1207800F00400042873D10027714838
:10191000C06900F0805070B900BF6E48C06940F0E7
:1019200080506C49C8610846C06900F08050009042
:1019300000BF00BF01276A48006800F48070B0B99A
:101940006748006840F4807065490860FFF77EFCD6
:10195000054606E0FFF77AFC401B642801D9032006
:10196000C0E65F48006800F480700028F2D000BF35
:10197000E068012806D15748006A40F00100554947
:10198000086227E0E06858B95248006A20F0010078
:10199000504908620846006A20F00400086219E015
:1019A000E06805280BD14B48006A40F00400494923
:1019B00008620846006A40F0010008620AE04548F3
:1019C000006A20F00100434908620846006A20F0DE
:1019D0000400086200BFE068A0B1FFF737FC0546CD
:1019E00009E0FFF733FC401B41F28831884202D9FD
:1019F000032077E622E03748006A00F00200002862
:101A0000EFD012E0FFF722FC054608E0FFF71EFCCE
:101A1000401B41F28831884201D9032062E62D48FB
:101A2000006A00F002000028F0D1012F05D12948FA
:101A3000C06920F080502749C86100BFE069C8B381
:101A40002448406800F00C00082860D0E0690228B3
:101A500048D1002020490866FFF7F8FB054606E05C
:101A6000FFF7F4FB401B022801D903203AE619488E
:101A7000006800F000700028F2D1206AB0F5803FC5
:101A800007D11448406820F40030A1680843114988
:101A90004860D4E9080108430E49496821F47411EB
:101AA00008430C49486001200B490866FFF7CEFB4C
:101AB000054607E03DE0FFF7C9FB401B022801D9BE
:101AC00003200FE60348006800F000700028F2D001
:101AD0002FE0000000100240000042428004424219
:101AE00000700040002014490866FFF7AFFB054670
:101AF00006E0FFF7ABFB401B022801D90320F1E50C
:101B00000E48006800F000700028F2D111E0E06992
:101B1000012800D1E6E50948466806F48031206ACC
:101B2000814204D106F47011606A814201D0012023
:101B3000D8E50020D6E50000000042420010024037
:101B400010B504460CB9012010BD606A38B9606850
:101B5000B0F5827F00D105E00021E16102E00021C3
:101B6000216161610021A16294F8510028B900202F
:101B700084F85000204600F043F8022084F8510019
:101B80002068006820F0400021680860A08800F408
:101B90008270218901F404410843A18901F40061A4
:101BA0000843217C01F002010843217D01F001017D
:101BB0000843218B01F400710843217F01F03801B3
:101BC00008432021095D01F080010843218D01F4C3
:101BD00000510843216808600421A06901EA10400F
:101BE000216848602068C06920F400602168C861ED
:101BF00000206065012084F851000020A4E7000067
:101C000010B586B004460020029003900490059021
:101C10001949206888422DD100BF1848806940F4D6
:101C20008050164988610846806900F48050019010
:101C300000BF00BF00BF0846806940F00400886113
:101C40000846806900F00400019000BF00BFA0209A
:101C50000290022003900320059002A90848FFF794
:101C60005FF94020029000200390049002A90448EC
:101C7000FFF756F906B010BD0030014000100240D9
:101C8000000801402DE9FF5F0446884691461D4645
:101C90000E9E012002900020019000BF94F8500099
:101CA000012803D1022004B0BDE8F09F012084F890
:101CB000500000BFFFF7CAFA074694F851B06068B9
:101CC0000390AA46BBF1010F0BD00398B0F5827FB9
:101CD00004D1A06810B9BBF1040F02D0022001901A
:101CE000E9E0B8F1000F03D0B9F1000F00D015B949
:101CF00001200190DFE094F85100042802D0052073
:101D000084F8510000206065C4F83890E587A58705
:101D1000C4F83080E586A586206460642068006889
:101D200000F04000402805D02068006840F04000E6
:101D300021680860E068B0F5006F4DD1606810B1AF
:101D4000BAF1010F09D1206B00882168C860206BAF
:101D5000801C2063E08E401EE08636E020688068AC
:101D600000F00200022810D1E08E70B10298012824
:101D70000BD1206B00882168C860206B801C206319
:101D8000E08E401EE086002002902068806800F00F
:101D9000010068B1E08F58B12068C068A16B08806D
:101DA000A06B801CA063E08F401EE08701200290A2
:101DB000FFF74CFAC01BB04207D3701C28B10320B8
:101DC0000190012084F8510075E0E08E0028C5D113
:101DD000E08F0028C2D14DE0606810B1BAF1010F68
:101DE00009D1206B007821680873206B401C2063A8
:101DF000E08E401EE08637E02068806800F0020038
:101E0000022810D1E08E70B1029801280BD1206B0E
:101E1000007821680873206B401C2063E08E401E10
:101E2000E086002002902068806800F0010068B120
:101E3000E08F58B12068C068A16B0870A06B401C8F
:101E4000A063E08F401EE08701200290FFF7FEF9BB
:101E5000C01BB04201D3701C00B92EB90320019001
:101E6000012084F8510026E0E08E0028C4D1E08FE4
:101E70000028C1D13A463146204600F0E7FB20B1A8
:101E8000012001902020606515E0A06850B900BFD6
:101E9000002000902068C068009020688068009052
:101EA00000BF00BF606D10B10120019002E0012071
:101EB00084F8510000BF00BF002084F8500000BF2C
:101EC0000198F0E67047704710B504460CB9012040
:101ED00010BD94F83D0028B9002084F83C0020464D
:101EE00000F025F8022084F83D00211D206800F054
:101EF000B5FC012084F8460000BF84F83E000121B3
:101F00003F200155402001554120015500BF00BF31
:101F1000012084F84200432001554420015545200A
:101F2000015500BF012084F83D000020D0E7704734
:101F3000014691F83D00012801D0012070470220A0
:101F400081F83D000868C06840F001000B68D86067
:101F5000124B086898420BD00868B0F1804F07D048
:101F60000F4B0868984203D00E4B086898420CD17A
:101F70000868806800F00702062A0CD0086800682C
:101F800040F001000B68186005E00868006840F048
:101F900001000B6818600020D0E70000002C014011
:101FA0000004004000080040704710B50446206857
:101FB0000069C0F34000D8B12068C068C0F3400099
:101FC000B0B16FF00200216808610120207720681D
:101FD000806900F0030018B12046FFF7E5FF05E037
:101FE000204600F0ADF8204600F0ABF80020207746
:101FF00020680069C0F38000D8B12068C068C0F3D1
:102000008000B0B16FF004002168086102202077E1
:102010002068806900F4407018B12046FFF7C4FFC3
:1020200005E0204600F08CF8204600F08AF80020F9
:10203000207720680069C0F3C000D8B12068C0686C
:10204000C0F3C000B0B16FF008002168086104203F
:1020500020772068C06900F0030018B12046FFF720
:10206000A3FF05E0204600F06BF8204600F069F879
:102070000020207720680069C0F30010D8B12068E4
:10208000C068C0F30010B0B16FF0100021680861A3
:10209000082020772068C06900F4407018B12046FD
:1020A000FFF782FF05E0204600F04AF8204600F0E6
:1020B00048F8002020772068006900F0010058B13E
:1020C0002068C06800F0010030B16FF001002168A5
:1020D0000861204600F036F820680069C0F3C0109F
:1020E00058B12068C068C0F3C01030B16FF08000F4
:1020F000216808612046FFF7E5FE20680069C0F30B
:10210000801058B12068C068C0F3801030B16FF003
:10211000400021680861204600F020F8206800692E
:10212000C0F3401058B12068C068C0F3401030B10F
:102130006FF02000216808612046FFF7C4FE10BD43
:102140007047704710B5044603492068884201D1A2
:10215000FFF782F810BD000000080040704700BF84
:10216000FEE7000088B0A7E05448006854490968B9
:1021700088427CD0002210215248FFF761F84FF4CA
:102180007A700423504A514900905148FFF77AFD74
:10219000012210214B48FFF753F84B48407880014B
:1021A0004949897840EAA1004A49088008460088E0
:1021B00003F0F2FA82460022474B03F03DFB8046D3
:1021C0000022464B03F00EF906460022444B03F072
:1021D00033FB044603F09AFA384908604148D0F8C6
:1021E0007001414908600846006803F0BEFA804665
:1021F000894632490968324A1268881A03F0B5FAEA
:1022000006463A4A3A4B03F017FB0446394A3A4B22
:1022100003F012FB824642464B4603F027F8CDE915
:10222000060103F073FA354908602E48D0F87001B2
:10223000334908603148006803F004FF0446294927
:10224000D1F8700103F0FEFE0546224629462D48CE
:1022500000F0F8F82349B1F96A0103F0F3FE0446EF
:1022600020482146D0F8F42100F5C27000E010E0CB
:1022700000F0E8F81B49D1F8A40103F09DFE0446E4
:1022800000231A46194600904FF4007000F03CFFFE
:102290000FE01C221C4901A8FEF727F8002101A825
:1022A00001F08EFC194908601948006802F05CFCD6
:1022B00000BF012002F02AFC56E70000A400002025
:1022C000A8000020000801409B000020980000208A
:1022D0005C030020A00000200000F03F0000D04080
:1022E00000807640EC100020B8000020E8C35CB00D
:1022F000DDA54C40B6600BB6E0DCA840AC00002089
:10230000B0000020C01200206C660008040000200D
:102310000000002010B50F480F49086004204860F5
:1023200000210D488160C1604FF4A02101614FF48C
:1023300080114161002101760121417681760021E1
:10234000C17601774177FEF7B4FB08B1FEF77DF85F
:1023500010BD0000006400403403002000B587B0C9
:102360001C2206496846FDF7C0FF0021684601F0BF
:1023700027FC0349086007B000BD00002466000880
:102380000000002000B585B000200190029003906D
:10239000049000BF1548806940F02000134988610F
:1023A0000846806900F02000009000BF00BF00BF19
:1023B0000846806940F0040088610846806900F0A2
:1023C0000400009000BF00BF012210210848FEF762
:1023D00037FF10200190012002900390022004900A
:1023E00001A90348FEF79CFD05B000BD00100240A6
:1023F0000008014010B50F480F4908604FF4827083
:10240000486000210C488160C16002210161012106
:102410004161490281612821C1610021016241625B
:1024200081620A21C162FFF78BFB08B1FEF70DF84C
:1024300010BD0000003001405C03002000BFFEE73B
:1024400000BFFEE72DE9F04704460E461546216C15
:102450006164E16B2164A561E6613146284603F0C1
:10246000CDFFE063E16CE06B03F004FF07D9E06CA3
:1024700080F000473846E16B03F0FCFE02D80020F4
:10248000A06401E00120A0642068002854D1E16B21
:10249000606803F023FE6062A06C03F0D3FD814608
:1024A000A16803F01BFE8046E16B03F017FE0746B0
:1024B000A16A03F017FCA062616BA163216B6163E9
:1024C000D4E90F0103F09AFF2063216BE06803F069
:1024D00005FEE0626169A06A03F0CCFE02D2606989
:1024E000A0620BE0606980F000473846A16A03F003
:1024F000C1FE03D2606980F00040A062D4E9090106
:1025000003F0F0FB0746E16A03F0ECFB206221696F
:10251000206A03F0AFFE02D2206920625CE02069ED
:1025200080F000473846216A03F0A4FE54D22069A7
:1025300080F0004020624FE0206801284CD1D4E9AF
:102540000F0103F05BFF0746616803F0C7FD60629F
:10255000A06C03F077FD8046A16803F0BFFD07463D
:10256000E16B03F0BBFDA062616BA163216B616352
:102570004FF08040216C03F0B1FD8046E16B03F029
:10258000AAFE0746616C03F0ADFB2063216BE06897
:1025900003F0A4FDE062D4E9090103F0A3FB804647
:1025A000E16A03F09FFB0746216A03F09BFB206270
:1025B0002169206A03F05EFE02D2206920620BE0EE
:1025C000206980F000473846216A03F053FE03D2A9
:1025D000206980F0004020620020BDE8F0872DE9EE
:1025E000F04106ACF0CC016042608360C4600561DC
:1025F0004661C7644FF00008C0F83880C0F83480E6
:10260000C0F83080C0F82080C0F82C80C0F8288046
:10261000C0F82480C0F84480C0F84080C0F83C80F6
:10262000BDE8F08108B508490968C9084FF47A7215
:10263000B1FBF2F14143009100BF00BF00994A1E77
:1026400000920029F9D108BD14000020F8B5044615
:102650000D4616462B46002280212046009600F0AB
:1026600009F828B1606D40F0200060650320F8BDD6
:102670000020FCE72DE9F84F04460D4690461E4623
:10268000DDF82890FEF7E2FDA0EB0900371AFEF70F
:10269000DDFD82462C480068C0F3CB3078430090C3
:1026A00045E0701C002842D0FEF7D0FDA0EB0A00E8
:1026B000B84200D2A7BB2068406820F0E000216843
:1026C00048606068B0F5827F0DD1A068B0F5004F1A
:1026D00003D0A068B0F5806F05D12068006820F0B5
:1026E000400021680860A06AB0F5005F0DD100BF0E
:1026F0002068006820F400502168086020680068A5
:1027000040F400502168086000BF012084F85100A7
:1027100000BF002084F8500000BF0320BDE8F88F00
:10272000FFE7009800B900270098401E009020683D
:1027300080682840A84201D1012000E000204045E7
:10274000AFD10020EAE700001400002008B500BF68
:10275000154800F02BFD144800F03EFD124800F033
:10276000FFFC114890F84002022804D10E4890F86E
:102770004102022812D00C49D1F8E80003F01CFCF9
:1027800004460949C86A03F017FC05462B46002297
:1027900011464FF40070009400F0B6FC0348006846
:1027A00002F0B4F9D4E70000EC100020CC000020C7
:1027B00010B500BF502080F31188BFF34F8FBFF3D7
:1027C0006F8F00BF02F0FAFB18B14FF08050044940
:1027D000086000BF002080F3118800BF10BD00001A
:1027E00004ED00E000B58FB0282105A8FDF7AFFD8E
:1027F00014216846FDF7ABFD01200590000406900A
:10280000002007900120099002200C90C1030D9137
:102810004FF4E0110E9105A8FEF760FF08B1FDF737
:1028200014FE0F20009002200190002002904FF42F
:10283000806003900020049002216846FEF718FE95
:1028400008B1FDF702FE0FB000BD704710B5024899
:10285000FFF7ABFB10BD0000B403002010B5026809
:10286000184B984208D0B0F1804F05D0164B9842D3
:1028700002D0164B984203D122F070024B681A43E3
:10288000104B984208D0B0F1804F05D00E4B9842C3
:1028900002D00E4B984203D122F44072CB681A4307
:1028A00022F080034C6943EA040202608B68C36231
:1028B0000B688362034B984201D10B6903630123C8
:1028C000436110BD002C014000040040000800409E
:1028D00010B50248FDF7C6FF10BD0000340300200C
:1028E00010B50248FDF7BEFF10BD00003403002004
:1028F00000BFFEE7490050EAC12018BF04204A0D7E
:1029000018BF40F0010040F2FF72B2EB515F08BF08
:1029100040F00200012808BF05207047410008026E
:1029200018BF04200A0E18BF40F001004FF07F428C
:1029300032EA010108BF40F00200012808BF05206B
:102940007047000002480068C0F302207047000092
:102950000CED00E010B5002804DB0A07130E054A51
:10296000135406E00A07140E034A00F00F031B1F5E
:10297000D45410BD00E400E018ED00E02DE9F04172
:102980004F1E00EBC7010446D1E9000115461E4663
:1029900037F006020DD02A46334602F04DFF7F1E67
:1029A00004EBC703D3E9002302F060FC37F0060212
:1029B000F1D1022F25D0042F13D0062F18BFBDE868
:1029C000F0812A46334602F037FFD4E90A2302F0A9
:1029D0004DFC2A46334602F02FFFD4E9082302F0CB
:1029E00045FC2A46334602F027FFD4E9062302F0CD
:1029F0003DFC2A46334602F01FFFD4E9042302F0CF
:102A000035FC2A46334602F017FFD4E9022302F0D0
:102A10002DFC2A46334602F00FFFD4E90023BDE81F
:102A2000F04102F023BC012203F08FBD02F01EBC76
:102A3000024A0020110703F088BD000001FDFFFFDE
:102A400000214FF07E5003F0C1B903F04BB90021D3
:102A5000084603F0BBB961214FF0E04003F0A3BD8D
:102A60006FF05E01080703F09EBD00002DE9F84FEE
:102A700004460D4621F0004000917349814211DC6B
:102A80007249884201DC06D12CB120462946BDE8B6
:102A9000F84FFFF7C8BF6E48002DCCBF6D496E4997
:102AA000BDE8F88F6D49814211DD6D498142D8BF83
:102AB0004FF0FF366DDD20462946FFF71BFF042847
:102AC00008BFFFF7B5FF20462946BDE8F88F6549E6
:102AD000654F25F00045814233DD6449814219DDAF
:102AE000002632464FF080432046294602F0BEFBC6
:102AF00080468A4601222046294603F026FD002210
:102B00003B4602F0D9FF4246534602F06BFC0446B6
:102B10000D463EE001260022BA463B4620462946A5
:102B200002F0A4FB80460F46002253462046294669
:102B300002F0C2FF42463B4602F054FC04460D46FA
:102B400027E04B4981421BDDDFF828A10226002245
:102B500053462046294602F06FFE00223B4602F013
:102B600085FB80460F46002253462046294602F048
:102B7000A3FF42463B4602F035FC04460D4608E002
:102B8000032622462B4600203B4902F02BFC04463C
:102B90000D4622462B461046194602F04DFE8B4646
:102BA000824602460B4602F047FE0746024633487D
:102BB00088460B4606217844FFF7E0FE52465B4606
:102BC00002F03AFE82462E488B463A46434605219D
:102BD0007844FFF7D3FE3A46434602F02DFE024604
:102BE0000B46002E504659460CDA02F03FFB2246B7
:102BF0002B4602F021FE01B022462B46BDE8F04FE5
:102C000002F04EBF02F032FB22462B4602F014FEC9
:102C10001C4A7A4402EBC603D3E9002302F04CFFBE
:102C200022462B4602F048FF174A7A4402EBC603BD
:102C3000D3E9002302F034FF009A002AB8BF81F0E4
:102C40000041BDE8F88F0000000010440000F07F54
:102C5000182D4454FB21F93FFB21F9BF0000DC3F54
:102C60000000203E0000F33F0000F03F0000E63F80
:102C7000008003400000F83F0000F0BF763C0000F9
:102C8000343C0000D23B00009A3B00002DE9F04D9F
:102C90009446CCF1000423F000464CEA0404594F5A
:102CA00046EAD4749A46884621F00042BC4206D8CF
:102CB000454240EA050442EAD474BC4204D9BDE866
:102CC000F04D6246FFF7B2BEAAF14055A5F17F650F
:102CD00055EA0C040BD0022404EAAA744A4DDFF82A
:102CE0002CE144EAD87452EA000B04D00CE0BDE8B1
:102CF000F04DFFF7BBBE002C14BF012CBDE8F08DDA
:102D0000022C30D0032C32D056EA0C0B0AD0BE4233
:102D100020D1BA4209D126F0804622F080423346C3
:102D2000114617E000291ADB25E0DFF8E4B0FB4488
:102D3000002C04BFDBE90001BDE8F08D012C02BFCF
:102D4000DBE9000181F00041BDE8F08D022C0AD0E2
:102D5000032C0CD0BA4212D1B8F1000F0BDA2A487A
:102D60002C49BDE8F08D28462B49BDE8F08D28465A
:102D70007146BDE8F08D24482849BDE8F08D921BCE
:102D800012153C2AC4BF204F244E10DCBAF1000FAC
:102D9000BEBF12F13C0F00273E4608DB624602F040
:102DA00021FB21F00041FFF761FE07460E4694B17A
:102DB000012C08BF86F000460DD0194A194B022C91
:102DC0003846314615D002F077FE2A46BDE8F04D70
:102DD000114B02F071BE002213463846314602F014
:102DE00059FC04BF0220FDF7E1FA38463146BDE840
:102DF000F08D02F061FE2A46BDE8F04D064B02F070
:102E00004FBE00000000F07F182D4454FB2109C084
:102E10002E3B0000FB21F9BFFB210940FB21F93FBC
:102E2000075C143326A6A13C2DE9F0474FF0684219
:102E300002EB40030C460546B3F1654F3CBF02EB85
:102E40004102B2F1654F80F0CD8000BFC0F3C752A0
:102E5000C1F3C753D21A1B2A06DD10F0004F14BF6E
:102E600087488848BDE8F08712F11A0F2FDA11F071
:102E7000004F06D010F0004F0CBF83488348BDE8D8
:102E8000F0872146284602F0A1FF0646FFF746FDDF
:102E9000042808BFFFF7E4FD2846FFF73FFD05467D
:102EA0002046FFF73BFD04463046FFF737FD042D73
:102EB00018BF052D08D1042C18BF052C04D10028FB
:102EC00004BF0220FDF772FA3046BDE8F0874200E9
:102ED000B2EB410F25D910F0004F19BF6C4F6D4E6A
:102EE0006D4F6E4E224685F0004415460A4680F02E
:102EF000004110460A1A5200B2F1807F3ED248408B
:102F00006749DFF8A0A110F0004F18D04FF03F48FC
:102F1000384603F073FA07465146304603F06EFA1E
:102F200017E011F0004F04BF00263746E2D010F042
:102F3000004F19BF5C4F5D4E5D4F5E4EDAE74FF0BC
:102F40007C58384602F0CEFE07465146304602F025
:102F5000C9FE06464146284603F0C0F8214602F065
:102F6000C1FE82462146404603F0B8F8294603F0E8
:102F7000B2F9514602F02AFF044604E021462846F1
:102F800002F024FF0446014603F0A8F880464A49AF
:102F900003F0A4F8494902F0A5FE414603F09EF86B
:102FA000474902F09FFE414603F098F8454902F078
:102FB00099FE414603F092F8434902F093FE05461C
:102FC0004146204603F08AF8294603F087F8314647
:102FD00002F088FE214602F085FE3946BDE8F04742
:102FE00002F080BE4FF07F42B2EB400F28BFB2EB41
:102FF000410F03D2BDE8F047FFF727BD40EA0103C8
:103000005B0008BF44F0FF410AD0B2EB400F08BF9D
:10301000B2EB410F06D125F0804024F080410546F7
:103020000C4613E7B2EB400F12BF5FEA410345F0D5
:10303000FF4004F000413FF409AFB2EB410F12BF73
:103040005FEA400205F0004044F0FF413FF4FEAE6D
:103050004A0092EA40033FF5F9AE002AACBF4FF0B8
:103060009F464FF03E56314603F038F8054631464C
:10307000204603F033F8044628462146E6E60000E1
:10308000DB0FC9BFDB0FC93FDB0F4940DB0F49C076
:103090000000C9BF22AAFDB90000C93F22AAFD391C
:1030A0000060ED3EC30ACE37000049C022AA7DBAB7
:1030B0000000494022AA7D3A2DAD65BD8FB8D53DAF
:1030C0000FB511BE61C84C3EA8AAAABE00B58BB010
:1030D0000120099000200790012008900020019015
:1030E0000290039004900690059001A90548FDF711
:1030F00069FA02210348FDF7ABF90248FDF7D9FE52
:103100000BB000BD340300202DE9F04186B08046AD
:103110000C4615461E460C9F082004900020029085
:103120000390CDF80080200A0A4908704C70280AE4
:103130008870CD70300A08714E71380A8871CF716D
:10314000054B0A4669460548FDF797F906B0BDE804
:10315000F08100008000002088000020340300205F
:1031600070B50446D4F8700102F06CFF0546C42027
:103170000259294604F58C70FFF764F9B4F96A0125
:1031800002F060FF0546294604F1C800D4F8382152
:10319000FFF758F9B4F9AE0002F054FF054629468E
:1031A00004F10C006268FFF74DF970BD38B50446B4
:1031B0004FF41070005D02280CD194F841020228EF
:1031C00008D1002003460246014600904FF40070EB
:1031D000FFF79AFF38BD000001B59CB01C98B0F90C
:1031E0003C02179002F02EFF1A901C98B0F93E0294
:1031F000179002F027FF19901C98B0F93802179029
:1032000002F020FF18900021199802F033FF64D2D9
:103210004FF080411A9802F02DFF5ED84FF04041E8
:103220001A9803F027F858D80021189802F090FE59
:1032300053D1189802F02AFDCDE90A01FE480CC8C6
:103240000A9802F0F9FACDE90E01199802F01EFD74
:10325000CDE90C01DDE90E2302F008F8CDE91001FB
:1032600001F0D2FF4FF08041139000F0D9FC15908F
:10327000189802F00BFDCDE90A01EF480CC80A9836
:1032800002F0DAFACDE90E011A9802F0FFFCCDE95E
:103290000C01DDE90E2301F0E9FFCDE9100101F099
:1032A000B3FF4FF08041139000F0BAFC14901599D1
:1032B00002F018FD169001F0AFFA4FF0824117901E
:1032C00002F00CFF1C994860DC48006802F0BAFE6E
:1032D00001461C98C0F8C410AAE20021189802F018
:1032E00037FE7DD1189802F0D1FCCDE90A01D24811
:1032F0000CC80A9802F0A0FACDE90E01199802F064
:10330000C5FCCDE90C01DDE90E2302F0D5FBCDE9CA
:103310001201189802F0BAFCCDE90A01C6480CC89F
:103320000A9802F089FACDE90E011A9802F0AEFC73
:10333000CDE90C01DDE90E2301F098FFCDE9100184
:10334000DDE91223FFF7A2FCBD4ABE4BCDE9140113
:1033500002F072FA0022BC4BCDE9160102F06AFBC2
:103360003ED2189802F092FCCDE90A01B2480CC88E
:103370000A9802F061FACDE90E01199802F086FC74
:10338000CDE90C01DDE90E2301F070FFCDE910015C
:1033900001F03AFF4FF08041139000F041FC15908E
:1033A000189802F073FCCDE90A01A3480CC80A98EA
:1033B00002F042FACDE90E011A9802F067FCCDE95D
:1033C0000C01DDE90E2301F051FFCDE9100101F000
:1033D0001BFF4FF08041139000F022FC149000E09E
:1033E0006FE0159902F07EFC169001F015FA4FF08F
:1033F0008241179002F072FE1C9948608F48006865
:1034000002F0B3F9CDE91401189802F03FFCCDE9C0
:10341000000189480CC8009802F00EFACDE90401B9
:10342000199802F033FCCDE90201DDE9042301F033
:103430001DFFCDE9060101F0E7FE0A90189802F0A1
:1034400025FCCDE900017C480CC8009802F0F4F995
:10345000CDE904011A9802F019FCCDE90201DDE979
:10346000042301F003FFCDE9060101F0CDFE099030
:103470000A99FFF7D9FC0B9002F008FC704A714BD7
:10348000CDE90C0102F0D8F90022704BCDE90E0114
:1034900002F012FB81F000416D4A6E4BCDE9100144
:1034A00002F0CAF9CDE91201DDE9142301F0DEFED4
:1034B000CDE9160101F0A8FE01461C98C0F8C41021
:1034C00024E30021189802F043FD7CD1189802F003
:1034D000DDFBCDE90A0158480CC80A9802F0ACF9A6
:1034E000CDE90E01199802F0D1FBCDE90C01DDE91F
:1034F0000E2302F0E1FACDE91201189802F0C6FBA2
:10350000CDE90A014C480CC80A9802F095F9CDE9BA
:103510000E011A9802F0BAFBCDE90C01DDE90E2389
:1035200001F0A4FECDE91001DDE91223FFF7AEFBA7
:1035300081F00041424A434BCDE9140102F07CF98D
:103540000022414BCDE9160102F074FA3BD21898E3
:1035500002F09CFBCDE90A0137480CC80A9802F03A
:103560006BF9CDE90E01199802F090FBCDE90C0141
:10357000DDE90E2301F07AFECDE9100101F044FEF1
:103580004FF08041139000F04BFB1590189802F01B
:103590007DFBCDE90A0128480CC80A9802F04CF9D5
:1035A000CDE90E011A9802F071FBCDE90C01DDE9BD
:1035B0000E2301F05BFECDE9100101F025FE4FF076
:1035C0008041139000E083E000F02AFB14901599ED
:1035D00002F088FB169001F01FF94FF0824117901E
:1035E00002F07CFD1C9948601448006802F0BDF8A8
:1035F000CDE91401189802F049FBCDE900010E480D
:103600000CC8009802F018F9CDE90401199802F0ED
:103610003DFBCDE90201DDE9042301F027FECDE900
:10362000060101F0F1FD0A90189802F02FFBCDE998
:10363000000101480CC80FE0D8000020B0000020B5
:10364000E8C35CB0DDA54C400000574000806640F8
:10365000B6600BB6E0DCA840009802F0EDF8CDE9CA
:1036600004011A9802F012FBCDE90201DDE90423FE
:1036700001F0FCFDCDE9060101F0C6FD09900A99B3
:10368000FFF7D2FB0B9002F001FBFE4AFE4BCDE9A7
:103690000C0102F0D1F80022FC4BCDE90E0101F043
:1036A000E5FD81F00041FA4AFA4BCDE9100102F044
:1036B000C3F8CDE91201DDE9142301F0D7FDCDE90E
:1036C000160101F0A1FD01461C98C0F8C4101DE2CE
:1036D0000021189802F0CEFD7ED2189802F0D6FA9A
:1036E000CDE90A01EC480CC80A9802F0A5F8CDE92A
:1036F0000E01199802F0CAFACDE90C01DDE90E239A
:1037000001F0B4FDCDE9100101F07EFD4FF08041E4
:10371000139000F085FA1590189802F0B7FACDE9E9
:103720000A01DD480CC80A9802F086F8CDE90E01BE
:103730001A9802F0ABFACDE90C01DDE90E2301F095
:1037400095FDCDE9100101F05FFD4FF08041139030
:1037500000F066FA1490159902F0C4FA169001F080
:103760005BF880F000404FF08241179002F0B6FC09
:103770001C994860C948006801F0F7FFCDE91401C1
:10378000189802F083FACDE90201C3480CC80298E8
:1037900002F052F8CDE90601199802F077FACDE966
:1037A0000401DDE9062301F061FDCDE9080101F026
:1037B0002BFD0C90189802F069FACDE90201B64889
:1037C0000CC8029802F038F8CDE906011A9802F008
:1037D0005DFACDE9040100E02BE0DDE9062301F00C
:1037E00045FDCDE9080101F00FFD0B900C99FFF7A5
:1037F0001BFB80F000400D9002F048FAA44AA54B54
:10380000CDE90E0102F018F89E4A9F4BCDE9100158
:1038100002F012F8CDE91201DDE9142301F026FDD2
:10382000CDE9160101F0F0FC01461C98C0F8C41067
:103830006CE10021189802F01DFC7CD2189802F06F
:1038400025FACDE90A0194480CC80A9801F0F4FF62
:10385000CDE90E01199802F019FACDE90C01DDE964
:103860000E2301F003FDCDE9100101F0CDFC4FF076
:103870008041139000F0D4F91590189802F006FAE0
:10388000CDE90A0184480CC80A9801F0D5FFCDE9BA
:103890000E011A9802F0FAF9CDE90C01DDE90E23C8
:1038A00001F0E4FCCDE9100101F0AEFC4FF08041E5
:1038B000139000F0B5F91490159902F013FA1690D0
:1038C00000F0AAFF4FF08241179002F007FC1C990C
:1038D00048607248006801F048FFCDE9140118986B
:1038E00002F0D4F9CDE900016B480CC8009801F052
:1038F000A3FFCDE90401199802F0C8F9CDE902014E
:10390000DDE9042301F0B2FCCDE9060101F07CFC05
:103910000A90189802F0BAF9CDE900015E480CC887
:10392000009801F089FFCDE904011A9802F0AEF980
:10393000CDE9020100E031E0DDE9042301F096FC6D
:10394000CDE9060101F060FC09900A99FFF76CFAD5
:103950000B9002F09BF94B4A4B4BCDE90C0101F067
:103960006BFF0022494BCDE90E0101F07FFC81F095
:103970000041474A474BCDE9100101F05DFFCDE919
:103980001201DDE9142301F071FCCDE9160101F00B
:103990003BFC01461C98C0F8C410B7E0189802F030
:1039A00075F9CDE90A013C480CC80A9801F044FFBA
:1039B000CDE90E01199802F069F9CDE90C01DDE9B4
:1039C0000E2301F053FCCDE9100101F01DFC4FF076
:1039D0008041139000F024F91590189802F056F9E0
:1039E000CDE90A012C480CC80A9801F025FFCDE961
:1039F0000E011A9802F04AF9CDE90C01DDE90E2317
:103A000001F034FCCDE9100101F0FEFB4FF08041E4
:103A1000139000F005F91490159902F063F91690CF
:103A200000F0FAFE80F000404FF08241179002F063
:103A300055FB1C9948601948006801F096FECDE9D5
:103A40001401189802F022F9CDE9020112480CC8BD
:103A5000029801F0F1FECDE90601199802F016F97D
:103A6000CDE90401DDE9062301F000FCCDE9080100
:103A700001F0CAFB0C90189802F008F9CDE9020198
:103A800005480DE0E8C35CB0DDA54C400080664011
:103A9000B6600BB6E0DCA840D8000020B0000020E3
:103AA0000CC8029801F0C8FECDE906011A9802F090
:103AB000EDF8CDE90401DDE9062301F0D7FBCDE9FE
:103AC000080101F0A1FB0B900C99FFF7ADF980F014
:103AD00000400D9002F0DAF80D4A0E4BCDE90E01D0
:103AE00001F0AAFE0C4A0D4BCDE9100101F0A4FE35
:103AF000CDE91201DDE9142301F0B8FBCDE916018F
:103B000001F082FB01461C98C0F8C4101DB000BD36
:103B1000B6600BB6E0DCA840E8C35CB0DDA54C4065
:103B20000FB4BDF80610BDF8042041EA022109B225
:103B30000180BDF80A10BDF8082041EA022109B24F
:103B40008180BDF80E10BDF80C2041EA022109B2B7
:103B5000C180BDF81010C1F307110172BDF810103B
:103B600001F00F02427204B070470000FDF780FBC5
:103B7000FEF738FEFEF706FCFEF7CCFBFEF73AFC3C
:103B800008480068006840F040000649096808607D
:103B9000FFF79CFA00F056FEFEF7E0FB00F00BF892
:103BA00000BFFEE75C03002001460020842901D00D
:103BB000CA1C1044704710B501F050F8002010BD29
:103BC0007FB504460D46606998B1A06988B1B4F923
:103BD0000800FFF7E9FF0646D4E90510CDE90061CA
:103BE00002902B462269D4E9001001F08BF9039072
:103BF00013E0B4F90800FFF7D7FF064603A8CDE9A4
:103C00000060238A9AB22B46D4E9001001F048F9EB
:103C1000012802D0002004B070BD0398FBE700002B
:103C20002DE9F04D0E460023A0F5000C4FF0007179
:103C3000354684B002464FF07E5401EB45014FF00B
:103C40007F48BCF1FE4F80F09F81B1F1804FC0F002
:103C5000DB81FE490144B1F5005F40F2A78200F527
:103C60008021C90C01F00F07C1F307117F39A2EBC6
:103C7000C15501EB030B384602F0E4F96FF0030184
:103C800002F091FC4FF07E5102F02CF801460290B8
:103C9000284602F0B3FB01902846029902F022F870
:103CA00000F5006A6FF30B0A00905146029802F08B
:103CB000A5FB294602F016F802904FF07E500099BD
:103CC00002F084F801460090019802F007FA00F52E
:103CD00000656FF30B052846029902F0FFF9029088
:103CE0005146284602F0FAF9019902F0F4FA0299D5
:103CF00002F084FB009902F0F1F901460190284698
:103D000001F0F0FF0146029002F0E8F98246D04946
:103D100002F0E4F9CF4901F0E5FF514602F0DEF987
:103D200082460021284602F03EFC0090514602984F
:103D300002F0D4F905460021019802F034FC29462E
:103D400001F0D0FF82460146009801F0CBFF00F55C
:103D500000656FF30B052946009802F04FFB5146B2
:103D600001F0C0FF8246BC49284602F0B7F9009036
:103D7000BA49504602F0B2F98246B949284602F0E3
:103D8000ADF9514601F0AEFF82460146009801F0C0
:103D9000A9FF00F500656FF30B052946009802F0B6
:103DA0002DFB514601F09EFF8246AE48784450F804
:103DB000371000EBC700019147684FEA0B1002F083
:103DC00041F900903946504601F08CFF294601F038
:103DD00089FF019901F086FF009901F083FF00F54A
:103DE000006B6FF30B0B5846009902F007FB01992B
:103DF00002F004FB294602F001FB394602F0FEFA0C
:103E0000514602F068FA06F5006782466FF30B0729
:103E10003946304602F0F2FA0021009008464FF091
:103E2000000000F00C063946584602F057F90546E6
:103E300020F00040B0F18B4F0ADDB8EB400F07D304
:103E40004FF08B4060F31E052F464FF0000A1FE035
:103E50003846009901F046FF514602F03FF9074607
:103E60005846009902F03AF9394601F03BFF824684
:103E70000146284601F036FF00F500676FF30B0797
:103E80003946284602F0BAFA514601F02BFF824625
:103E900031460C204FF000005146384601F022FF19
:103EA00002F0A6F80646051102F0CCF8394602F0F9
:103EB00012FA514601F016FF07466B4902F00EF95F
:103EC0006A4901F00FFF394602F008F9684901F02C
:103ED00009FF394602F002F90146664806F00F066E
:103EE000784450F8260002F0F9F86349794451F813
:103EF000261001F0F7FE6149794451F8261001F0CF
:103F0000F1FE05F17D01FC2908D2294602F04BFBA8
:103F100004B02146BDE8F04D02F0E0B805F1BF0164
:103F2000B1F5BF7F16D8294602F03DFB214602F0CD
:103F3000D5F80546B8EB450F1AD068000CD02846D6
:103F4000FEF7ECFC042808BFFEF78AFD284604B003
:103F5000BDE8F08D002D0BDA0220FCF727FAFEF702
:103F60007FFD0146204604B061F31E00BDE8F08DE0
:103F70000220FCF71BFAFEF76EFD0146204604B056
:103F800061F31E00BDE8F08DB1F1804F3CD300BF5E
:103F900000F1FF41B1F1FE4F21D200BF20F00042FD
:103FA000C5F3C75110467F290DDB9729BFF651AEE7
:103FB000C1F196014FF0010C0CFA01F1A1F1010CD5
:103FC0001CEA050F07D00120FCF7F0F904B0BDE8AA
:103FD000F04DFEF73CBD294218BF294C39E641009F
:103FE0001CBF4FF08071B1EB400F09D91B2102F0CB
:103FF000DAFA02466FF01A0310F0004FCED128E62D
:10400000BCF1FE4F18D224E6B1F1007F0ED336F09A
:10401000004105D006F0004141F0FC552E46B7E7BF
:10402000410018BFB8EB400F78D8B1E7B1F1807FFD
:1040300038BFA5F50006ABD320F000416FF0FF4C70
:10404000104C01EB0C03A3422FD31DE0001080C0E5
:104050007EE24C3EABAAAA3E00B038423BAA3842B0
:10406000D49AB8BBD8280000FC596337C9FF753A09
:104070001872313DA4280000582800000C280000C8
:10408000000080BFFFFF3F0025F000439C44A44593
:104090000BD3B0F17E5F18BF5FEA450C3ED0B1F1A3
:1040A000FF4F98BFB3F1FF4F05D904B03146BDE8CB
:1040B000F04DFEF7CABCB0F1FF4F0FD0C5F3C751AA
:1040C0007F2909DB972911DAC1F19601012202FA51
:1040D00001F14A1E2A4205D0002108E015F0004FE8
:1040E00055D128E0294218BF012100D1022110F545
:1040F000000F14D020B3B0F1004F27D010F1814F42
:104100004ED04FF0FE41B1EB400F94BF0120002094
:10411000012101EBE571884239D10CE040E015F056
:10412000004F02D0012936D031E0012902BF3F48BB
:1041300004B0BDE8F08D4FF0FF4004B0BDE8F08D55
:1041400015F000400ED104B0BDE8F08DB5F1FF4F81
:104150001DD015F5000F05D015F0004F14D009B192
:10416000012907D00220FCF721F904B0BDE8F04D89
:10417000FEF766BC0220FCF719F9FEF761FC04B0FB
:1041800080F00040BDE8F08D09B1012903D004B0F2
:104190000020BDE8F08D04B04FF00040BDE8F08D88
:1041A00004B04FF07E50BDE8F08D00BF4FF07E515F
:1041B00002F024F905466FF0010102F0F4F91C4900
:1041C00002F089F8294601F089FF4FF07C5102F096
:1041D00082F807462946084601F080FF80F000403B
:1041E000394601F07BFF82461249284601F076FFEE
:1041F00007461149504601F071FF82460F49284693
:1042000001F06CFF514601F06DFD05460146384650
:1042100001F068FD00F5006B6FF30B0B5946384653
:1042200002F0ECF8294601F05DFDECE5000080FFAE
:10423000ABAAAA3E00B0B8413BAAB841D49A38BB59
:104240002DE9F04105460E461C4807681C480068E9
:10425000001D00F05FFB50B91948006890F82C1061
:104260000120884017490968814316480160681C8D
:1042700038B936B112480168091D134800F094FBA3
:104280001AE07C190E4800684460BC4207D20C4812
:104290000168091D0D48006800F06CFB0CE008483F
:1042A0000168091D0A48006800F064FB09480068BD
:1042B000844201D207480460BDE8F0812C00002050
:1042C0001800002030000020D8040020200000202A
:1042D0001C0000204800002010B5044600F070FBD0
:1042E00023480068401C224908602248006840B901
:1042F000204804600846006801280DD100F03AF912
:104300000AE01D48006838B91A480068C06AE16AC6
:10431000884201D81748046018480068401C1749B3
:10432000086094F82C10012088401549096808435A
:1043300013490860E16A01EB8101124A02EB810036
:10434000211D00F031FB00F065FB0B48006868B1EF
:1043500008480068C06AE16A884207D24FF080507E
:1043600009490860BFF34F8FBFF36F8F10BD000086
:104370002800002018000020340000204400002005
:1043800030000020FC03002004ED00E010B516E032
:1043900000F016FB0C48C068C468201D00F0BAFA93
:1043A0000A480068401E0949086009480068401E24
:1043B0000749086000F02EFB204600F00BF8044887
:1043C00000680028E4D110BDC404002028000020AB
:1043D0002400002010B5044694F8510030B9206B39
:1043E00000F036FB204600F033FB1AE094F8510051
:1043F000012803D1204600F02BFB12E094F8510075
:10440000022801D1012000E0002050B900BF502057
:1044100080F31188BFF34F8FBFF36F8F00BF00BFD2
:10442000FEE710BD30B54FF44063174800F00704B5
:104430002CB1C01D20F00700134C041B1B1B0246AF
:10444000124C22600024114D6C60D018083820F006
:1044500007000F4C206000240D4D2D686C600C4D42
:104460002D682C601146441A4C60094C24680C607D
:10447000084D4C682C60084D4C682C604FF000448F
:10448000064D2C6030BD0000EC04002054000020DC
:104490005C00002064000020600000206800002014
:1044A00000BFFFF773FF064800680128F9D94FF0F5
:1044B000805004490860BFF34F8FBFF36F8FF0E760
:1044C000FC03002004ED00E02DE9FF5F81460F466C
:1044D0009246DDE90E6B109CAAF10100216B01EB05
:1044E000800828F0070808F0070008B9012000E05C
:1044F000002050B900BF502080F31188BFF34F8FC8
:10450000BFF36F8F00BF00BFFEE7002507E0795DB6
:1045100004F134004155785D00B902E06D1C102DA6
:10452000F5D300BF002143200155072E00D30626F6
:10453000E66266640020A064201D00F018FA04F111
:10454000180000F014FA2461C6F10700A06164624B
:104550000020E06484F8500049464046039A00F089
:1045600049F92060BBF1000F01D0CBF80040BDE855
:10457000FF9F000010B5002407E004EB84010F4A00
:1045800002EB810000F0E6F9641C072CF5D30C481F
:1045900000F0E0F90B4800F0DDF90B4800F0DAF923
:1045A0000A4800F0D7F90A4800F0D4F9044809494C
:1045B000086004480849086010BD0000FC030020A2
:1045C000880400209C040020B0040020C4040020C3
:1045D000D80400201C0000202000002010B5014657
:1045E000164800E0006803688B42FBD3024643682C
:1045F00013448B4204D143684C6823444360014612
:104600000A464B6813440468A34211D10C4C03685A
:104610002468A34208D04B680468646823444B6054
:1046200003681B680B6005E0054B1B680B6001E02D
:1046300003680B60884200D0016010BD5400002068
:104640005C0000200A490968096809B9012100E0F5
:10465000002121B14FF0FF31064A116006E0044904
:104660000968C968C868034A41681160704700005A
:104670001C000020480000200E480068401C08B9BB
:10468000012000E0002050B900BF502080F31188C5
:10469000BFF34F8FBFF36F8F00BF00BFFEE700BFB8
:1046A000502080F31188BFF34F8FBFF36F8F00BF8F
:1046B00000BFFEE76C0000202DE9F04104464FF0FA
:1046C000000800F023FB4648006808B9FFF7AAFE7F
:1046D00044480068204000286BD1D4B1083404F06D
:1046E0000700B0B104F00700C0F10800044404F072
:1046F000070008B9012000E0002050B900BF502099
:1047000080F31188BFF34F8FBFF36F8F00BF00BFDF
:10471000FEE7002C4DD034480068844249D8334E1F
:104720003046056801E02E462D686868A04202D236
:1047300028680028F7D12A480068854239D03068B7
:1047400000F10808286830606868001B102819D933
:104750002F1907F0070008B9012000E0002050B928
:1047600000BF502080F31188BFF34F8FBFF36F8FCE
:1047700000BF00BFFEE76868001B78606C603846C9
:10478000FFF72CFF184968680968081A164908607D
:104790000846006816490968884203D21248006832
:1047A000134908600F496868096808436860002079
:1047B000286000F0A7FC08F0070008B9012000E01D
:1047C000002050B900BF502080F31188BFF34F8FF5
:1047D000BFF36F8F00BF00BFFEE74046BDE8F0812A
:1047E0005C000020680000206000002054000020D1
:1047F00064000020001F4FF080730360001F21F051
:1048000001030360001F034B03601438026020386B
:10481000704700007946000870B5054601F066FD56
:10482000044620F00040C0F1FF40C00F08D025F042
:104830000040C0F1FF40C00F04BF0120FBF7B6FDF0
:10484000204670BD1FB525482549264A0023CDE9DD
:104850000032CDE902104FF07E53234A0021234855
:10486000FDF7BDFE22481E49224ACDE90002002381
:10487000214ACDE9021019461C48BC30FDF7AFFEB5
:104880001B4817491D4A4FF07F53CDE90032CDE94F
:10489000021000231A4A19461A48FDF7A0FE1448D0
:1048A0000F49144ACDE900020023134ACDE9021052
:1048B000194614486C30FDF792FE0D480849124A1B
:1048C000124BCDE90032CDE902100023104A1946FF
:1048D0000C48BC30FDF783FE1FBD00000000FA430A
:1048E0000000484400606A4600002041F8100020A3
:1048F0000000A04000A00C460000104100009049BC
:10490000CDCCCC3E0412002000A08C49A69B443B99
:1049100027A0893B01460A69D1E901309860D1E9B5
:10492000010358605068884201D1886850600020B7
:1049300008611068401E106010687047034B0360E8
:10494000034B0B608023136070470000E0000020E1
:104950003401002000F1080141604FF0FF31816017
:1049600000F10801C1600161002101607047002170
:104970000161704710B502460B685C1C0CB91069E8
:1049800007E002F1080000E04068446824689C42A7
:10499000FAD944684C604C68A160886041600A6143
:1049A0001468641C146010BD42684A6093688B6090
:1049B000936859609160086103685B1C03607047ED
:1049C00000BF502080F31188BFF34F8FBFF36F8F6C
:1049D00000BF0E480068401C0C490860084600688B
:1049E000012812D10A480068C0B208B9012000E0CD
:1049F000002050B900BF502080F31188BFF34F8FC3
:104A0000BFF36F8F00BF00BFFEE770476C00002050
:104A100004ED00E00D48006850B900BF502080F35D
:104A20001188BFF34F8FBFF36F8F00BF00BFFEE74A
:104A300006480068401E054908600846006820B91D
:104A4000002080F3118800BF00BF70476C00002079
:104A500070B506463546002E3FD0083D2C461F490E
:104A600060680968084008B1012000E0002050B9E2
:104A700000BF502080F31188BFF34F8FBFF36F8FBB
:104A800000BF00BFFEE7206808B9012000E0002059
:104A900050B900BF502080F31188BFF34F8FBFF390
:104AA0006F8F00BF00BFFEE70C49606809680840CF
:104AB00098B1206888B909496068096888436060CE
:104AC00000F024F906496068096808440449086050
:104AD0002046FFF783FD00F015FB70BD6800002045
:104AE0006000002000204FF0E02108618861064846
:104AF00000684FF47A71B0FBF1F0401E4FF0E021F6
:104B000048610720086170471400002070B5044612
:104B10000025D4B11248006808B9012000E0002047
:104B200050B900BF502080F31188BFF34F8FBFF3FF
:104B30006F8F00BF00BFFEE700F0E8F800212046BD
:104B4000FFF77EFB00F0DEFA05463DB94FF08050DE
:104B500004490860BFF34F8FBFF36F8F70BD000033
:104B60005000002004ED00E070B50546FFF728FF77
:104B700015B93048006800E028460446201DFFF7BC
:104B8000C9FE78B9E06A00EB80002B4951F820009B
:104B900040B994F82C1001208840284909688143C5
:104BA00026480160A06A18B104F11800FFF7B2FEB0
:104BB00023480068401C224908601E48006884425F
:104BC00009D1211D1F48FFF7EFFE1F480068401C58
:104BD0001D49086009E01D480068401E1B49086027
:104BE0002046FFF7F7FBFFF72DFDFFF713FF1848EF
:104BF0000068E8B10F480068844219D11548006880
:104C000008B9012000E0002050B900BF502080F317
:104C10001188BFF34F8FBFF36F8F00BF00BFFEE758
:104C20004FF080500C490860BFF34F8FBFF36F8F78
:104C300070BD000018000020FC03002030000020A0
:104C400044000020C404002024000020280000208C
:104C5000340000205000002004ED00E010B586B0C4
:104C600000200590049003AA04A905A8FFF766FE9A
:104C70000022DDE904101346CDE9002102901CA1B9
:104C80001D48039A00F03EF91C4908600846006878
:104C900008B1012400E00024012C15D100BF5020F0
:104CA00080F31188BFF34F8FBFF36F8F00BF4FF0BA
:104CB000FF301349086001201249086000201249A2
:104CC000086000F071F810E0601C08B1012000E0FD
:104CD000002050B900BF502080F31188BFF34F8FE0
:104CE000BFF36F8F00BF00BFFEE706B010BD00002E
:104CF00049444C4500000000A14400084C0000203D
:104D000048000020340000202C00002002480068E9
:104D1000401C014908607047500000201D48006891
:104D200018B101201C49086032E000201A490860CF
:104D30001A480068B0FA80F0C0F11F0101EB810051
:104D4000174A52F8200008B1012000E0002050B9B5
:104D500000BF502080F31188BFF34F8FBFF36F8FD8
:104D600000BF00BFFEE701EB81020D4B03EB8200A9
:104D700042685268426000F108024368934202D1DF
:104D80004268526842604268D268064B1A6000BFAF
:104D900070470000500000203C0000203000002040
:104DA000FC030020180000201CB538490846007894
:104DB0000190FF200A4610700846007800909DF888
:104DC000000000F0F0009DF80020904201D1012089
:104DD00000E0002050B900BF502080F31188BFF3DD
:104DE0004F8FBFF36F8F00BF00BFFEE79DF800003D
:104DF00000F05000264A10700720264A106009E093
:104E000024480068401E234A10609DF800004006B8
:104E1000000E00909DF8000000F080008028EFD088
:104E20001C480068C0F10700042801D1012000E0FF
:104E3000002050B900BF502080F31188BFF34F8F7E
:104E4000BFF36F8F00BF00BFFEE71248006800028B
:104E5000104A10601046008800F4E06010600B4AB1
:104E6000019810700C48006840F470000A4908600E
:104E70000846006840F070400860FFF733FE0020ED
:104E800006490860FBF792F900201CBD00E400E031
:104E9000700000207400002020ED00E06C00002075
:104EA0002DE9FF4F85B0804689461746DDE912ABF4
:104EB000B800FFF701FC064656B15420FFF7FCFB93
:104EC00004460CB1266304E03046FFF7C1FD00E064
:104ED00000248CB1002084F85100CDE900ABCDE96D
:104EE00002403A4649464046089BFFF7EDFA204605
:104EF000FFF7F2F9012501E04FF0FF35284609B030
:104F0000BDE8F08F2DE9F04F85B007468846914601
:104F10009A46DDE90EB6109C0EB1012000E000209B
:104F200050B900BF502080F31188BFF34F8FBFF3FB
:104F30006F8F00BF00BFFEE70CB1012000E0002032
:104F400050B900BF502080F31188BFF34F8FBFF3DB
:104F50006F8F00BF00BFFEE75420039003985428D2
:104F600001D1012000E0002050B900BF502080F3A3
:104F70001188BFF34F8FBFF36F8F00BF00BFFEE7F5
:104F8000B4B1AEB125462C462E63022085F85100FF
:104F9000002004A953464A46CDE900B1CDE90250AC
:104FA00041463846FFF790FA2846FFF795F901E0A9
:104FB00000200490049805B0BDE8F08F2DE9F04181
:104FC0004FF0000844480068002877D14348006843
:104FD000451C4248056015BB41480068006808B997
:104FE000012000E0002050B900BF502080F311885C
:104FF000BFF34F8FBFF36F8F00BF00BFFEE738488E
:1050000007683848006836490860364807603648FF
:105010000068401C34490860FFF714FB00BF3348A8
:10502000006885423CD300BF2D480068006808B97D
:10503000012000E0002020B14FF0FF302B49086034
:105040002DE027480068C068C4686668B54202D28F
:105050002648066023E0201DFFF75CFCA06A18B11B
:1050600004F11800FFF756FC94F82C10012088403A
:105070001F49096808431E490860E16A01EB810184
:105080001C4A02EB8100211DFFF78EFC1A49E06AE1
:105090000968C96A8842C7D34FF00108C4E700BF56
:1050A00015480068C06A00EB8000124951F82000E2
:1050B000012801D94FF0010805E0FFE70F4800681B
:1050C000401C0E4908600E48006808B14FF0010806
:1050D0004046BDE8F0810000500000202C00002078
:1050E0001C0000202000002040000020480000207C
:1050F00030000020FC0300201800002038000020B1
:105100003C00002070B5002400263648006850B9E5
:1051100000BF502080F31188BFF34F8FBFF36F8F14
:1051200000BF00BFFEE7FFF74BFC2E480068401EA3
:105130002C4908600846006800284FD12A480068BA
:1051400000284BD024E02948C068C46804F1180046
:10515000FFF7E0FB201DFFF7DDFB94F82C1001208A
:10516000884023490968084321490860E16A01EB46
:105170008101204A02EB8100211DFFF715FC1E4929
:10518000E06A0968C96A884202D301201B490860A5
:105190001648006808B9012000E000200028D2D09D
:1051A0000CB1FFF74FFA1648056865B100BFFFF76D
:1051B00005FF10B10120114908606D1E002DF6D1C8
:1051C00000200F4908600D48006838B101263007FB
:1051D0000C490860BFF34F8FBFF36F8FFFF71AFCC6
:1051E000304670BD5000002028000020B004002090
:1051F00030000020FC030020180000203C000020AC
:105200003800002004ED00E021F00042A2F16052DD
:10521000B2F5801F01F0004328BFD2F17F6C0BD99B
:105220005FEA001C43EAC20242EB507018BF7047AD
:1052300028BF20F001007047B2F5801FBCBF1846A0
:1052400070474FEA410C1CF5001F02D2084601F0DE
:105250000CB870B500F09AFB00000089FFF7F6BFAC
:105260004FF00040A0F580007047000010B591EAB3
:10527000030F48BF83F0004300F12684841A71EBCA
:10528000030C05D2121943EB0C03001B61EB0C015C
:10529000DFF824E14FEA1154A4EB135C1EEA430F3C
:1052A00018BF9EEA445F73D023EA0E03DCF1200EA0
:1052B00021EA045143F4801332D322FA0CFE10EB9E
:1052C0000E0023FA0CFE41EB0E01CCF1200E03FA86
:1052D0000EFE10EB0E0051F10001B1F5801FCCF174
:1052E000200E32D201EB045112FA0EF2BDE810404A
:1052F00058BF7047401C38BF5FEA420218BF704772
:10530000002814BF20F0010041F100014FEA4103E1
:1053100013F5001F38BF7047A1F1C04100F084BBF6
:10532000012A43EB0302ACF1200CDCF11F0E32BF6B
:105330004FF0000E23FA0CF310EB030041EB045185
:10534000B4EB115FD0D0A1EB045101F580114908F5
:105350005FEA300001EB04510ED350F1000038BF7A
:1053600012FA0EFE08D1BDE81040C9E7401C38BF54
:105370005FEA4202CAD1C3E7BDE810404FEA4103E9
:1053800013F5001F38BF7047A1F1C04100F04CBBBE
:105390009EEA445F08D011EA5E0FBDE8104004BFEA
:1053A00001F0004100207047BDE8104070B500F0EA
:1053B000EDFA00BF64FBBE3E0000E0FF02494FF083
:1053C000000001F090B800BF0000F87F491058BFFE
:1053D000C1F140415B1058BFC3F140438B42EFF332
:1053E000008070472DE9C04130B4DFF8A0C23CEA2C
:1053F000111418BF3CEA131400F0EC8081EA030595
:105400001CEA111444EAD57418BF1CEA131500F005
:10541000C780A4EB05044FF0004545EAC12145EAE9
:10542000C32341EA505143EA525304F17F74994235
:1054300004F500344FEAC0204FEAC22208BF904270
:1054400000F09C804FEA13650FF24016765D4FEA3C
:10545000134506FB05F7C7F1807706FB07F74FEA10
:10546000D737A7FB03687642C8F58038A7FB06CE7E
:1054700038BFA8F1010807FB08E64FF0000EA6FBB5
:10548000028CE6FB03CEDCF1000CCEF1004E38BFFF
:10549000AEF1010EA6FB0C584FF000074FF00005CF
:1054A000E6FB0E87A1FB08C6A0FB07CE16EB0E0697
:1054B00045F10005E1FB076515F1E04E7EBFA4F55F
:1054C00080345FEA46066D4116F1800745F100051C
:1054D0004FEA17274FEA066647EA0567A6F1DE4658
:1054E000B6F1805F4FEA15251FD9384624F0010C2C
:1054F00005EBC471BCF1FE6F01EB0C1102D8F0BCDE
:10550000BDE8008124425CBF01F5801E9EEAC47F95
:1055100002D4F0BCBDE80081244238D4F0BCA1F133
:10552000C041BDE8004100F07FBA4FEAD22242EA12
:1055300043524FEAD323A7FB02864FEAD02040EA2A
:10554000415007FB03661EEA0E0F4FEAD12105FB0F
:10555000026658BFA6EB0056B6EB00564FEA520E55
:105560004EEAC37E18EB0E0E56EB530EBDD518EB6C
:1055700002085E417F1C55F10005B6E74FF4801527
:105580004FF000074FF000064FF00008ADE7F0BC09
:105590004FF0000001F1C04101F00041BDE8008181
:1055A00011EA0C1F0CEA131500D00CE013EA0C1FD3
:1055B00000F025804FF00000F0BC81EA030101F00B
:1055C0000041BDE80081F0BCBDE8004181EA030173
:1055D00000F02ABAF0BCBDE8004170B500F0D6F981
:1055E000097EFC3E00F007B881EA03014FF000009D
:1055F00001F00041704781EA030100F015BAF0BCE8
:10560000BDE800414FF0000021497047FFFDFBF964
:10561000F7F5F4F2F0EEEDEBE9E8E6E4E3E1E0DEE5
:10562000DDDBDAD8D7D5D4D3D1D0CFCDCCCBCAC857
:10563000C7C6C5C4C2C1C0BFBEBDBCBBBAB9B8B77E
:10564000B6B5B4B3B2B1B0AFAEADACABAAA9A8A871
:10565000A7A6A5A4A3A3A2A1A09F9F9E9D9C9C9B3F
:105660009A999998979796959594939392919190EA
:105670008F8F8E8E8D8C8C8B8B8A8989888887877B
:105680008685858484838382828181800000FF07F0
:105690000000F87F51EA030C17D41CF5801F58BF97
:1056A000BCF5801F00F10680994218BF704708BF03
:1056B0009042704707D711F5801F58BF13F5801F20
:1056C00019D499427047894270471CF5801F08D54C
:1056D000BCF5801FF7D58B4218BF704708BF8242C8
:1056E00070474FF4001C1CEB410F38BF1CEB430FFD
:1056F00001D28B42704770B500F048F992244900FE
:105700004FF000514FF08053FFF760BE4FEA410366
:105710004FEA5353A3F58063D3F11E03C8BFD3F1FF
:10572000210C0CDD4FF0004242EAC12242EA505205
:1057300032FA03FC8CEAE17CACEBE1707047102B91
:10574000C4BF0020704703F5787CBCF1FF3F04D054
:105750006FF0004282EA2100704770B500F016F940
:105760004992248000207047F2E710F0004248BFC1
:105770004042B0FA80F310FA03F10AD0C3F11D03DE
:1057800003F580634FEA415002EB035202EBD12153
:1057900070474FF000007047B0FA80F310FA03F141
:1057A0000AD0C3F11D0303F580634FEA41504FEA6D
:1057B000035202EBD12170474FF000007047000008
:1057C00051EA030C17D41CF5801F58BFBCF5801F8D
:1057D00000F10680994218BF704708BF9042704799
:1057E00007D711F5801F58BF13F5801F19D49942B0
:1057F0007047894270471CF5801F08D5BCF5801F93
:10580000F7D58B4218BF704708BF824270474FF4EC
:10581000001C1CEB410F38BF1CEB430F01D28B4225
:10582000704770B500F0B2F8922449004FF0005173
:105830004FF08053FFF7CABDDFF848C170B51CEACE
:10584000111E1EBF1CEA13159EEA0C0F95EA0C0FE1
:1058500000F06F8081EA030423EA4C134EEAD47E01
:1058600021EA4C1141F4801143F48013AE44A1FBB2
:10587000024CA0FB0365AEF17F7E361955EB0C059B
:10588000A1FB034C4CF10003A0FB021C16EB0C0621
:10589000654153F10003094218BF46F0010613F4B5
:1058A000007F0BD14FEA03314FEA0530340341EA60
:1058B000155140EA16506FF003020AE04FEAC32187
:1058C0004FEAC520F40241EA555140EA56506FF0C4
:1058D000020202EB2E4201EB025585EACE710AD09C
:1058E0005FEA440C18BF24F0004450F1000041F17D
:1058F000000120EAD47040F2FE7C624500D270BD07
:10590000A84214BF4FF080444FF04044002E08BF1F
:105910000024BEF1806FA8BFA1F1C041BDE8704076
:1059200080F282804FF0000001F1C04101F000419F
:1059300070479EEA0C0F0CEA131518BF95EA0C0F7E
:1059400006D04FF0000081EA030E0EF0004170BD5A
:1059500000F01CF88900013E00F007B800F009B81B
:105960004FEA430C5FEA5C5C08D081EA030100F077
:105970005BB84FEA410C5FEA5C5CF6D14FF0000087
:10598000014970470000FF070000F87F0EF1020E8A
:105990002EF0030E5EF8046B364205D4012A43EB69
:1059A000030515F5001F12D8012841EB010C1CF569
:1059B000001F0CD80ED14FEAD17C15F5001F0CEB5F
:1059C0004C0C0CF1020C08BF4CEBD37C04E04FF004
:1059D000080C01E04FEAD37C0CEB4C0526FA05F6E7
:1059E00006F00706B6F1040C06D20EEB860CBDE8F5
:1059F00070404CF0010C6047DFE80CF0090B02022C
:105A00004FF000414FF00000A1F5002170BD194694
:105A10001046012851EB010418BFD4F5001484BFCF
:105A2000002001F0004170BD0808A0F500114FEA08
:105A30003101704753EA010C17D41CF5801F58BF81
:105A4000BCF5801F00F106808B4218BF704708BF6D
:105A50008242704707D713F5801F58BF11F5801F8A
:105A600019D48B4270479B4270471CF5801F08D5A4
:105A7000BCF5801FF7D5994218BF704708BF904208
:105A800070474FF4001C1CEB430F38BF1CEB410F59
:105A900001D2994270470FB40CBC03BCFFF7C1BEE2
:105AA00091EA030F10B581F000413FF5E7AB83F0B9
:105AB000004300F009B8000010B591EA030F48BF99
:105AC00083F000433FF5DAAB841A71EB030C07D285
:105AD00012198CF0004C43EB0C03001B61EB0C0122
